{
  "contractName": "Advertising",
  "abi": [
    {
      "inputs": [],
      "stateMutability": "nonpayable",
      "type": "constructor"
    },
    {
      "anonymous": false,
      "inputs": [
        {
          "indexed": false,
          "internalType": "address",
          "name": "addr",
          "type": "address"
        },
        {
          "indexed": false,
          "internalType": "string",
          "name": "_title",
          "type": "string"
        },
        {
          "indexed": false,
          "internalType": "uint256",
          "name": "_pot",
          "type": "uint256"
        },
        {
          "indexed": false,
          "internalType": "uint256",
          "name": "_count",
          "type": "uint256"
        }
      ],
      "name": "AddAdv",
      "type": "event"
    },
    {
      "anonymous": false,
      "inputs": [
        {
          "indexed": false,
          "internalType": "uint256",
          "name": "val",
          "type": "uint256"
        }
      ],
      "name": "howmuch",
      "type": "event"
    },
    {
      "anonymous": false,
      "inputs": [
        {
          "components": [
            {
              "internalType": "string",
              "name": "title",
              "type": "string"
            },
            {
              "internalType": "string",
              "name": "comment",
              "type": "string"
            },
            {
              "internalType": "uint256",
              "name": "pot",
              "type": "uint256"
            },
            {
              "internalType": "uint256",
              "name": "count",
              "type": "uint256"
            },
            {
              "internalType": "uint256",
              "name": "reward",
              "type": "uint256"
            }
          ],
          "indexed": false,
          "internalType": "struct Advertising.AdvInfo",
          "name": "info",
          "type": "tuple"
        }
      ],
      "name": "test",
      "type": "event"
    },
    {
      "inputs": [
        {
          "internalType": "string",
          "name": "_title",
          "type": "string"
        },
        {
          "internalType": "string",
          "name": "_comment",
          "type": "string"
        },
        {
          "internalType": "uint256",
          "name": "_pot",
          "type": "uint256"
        },
        {
          "internalType": "uint256",
          "name": "_count",
          "type": "uint256"
        }
      ],
      "name": "addAdv",
      "outputs": [
        {
          "internalType": "bool",
          "name": "res",
          "type": "bool"
        }
      ],
      "stateMutability": "payable",
      "type": "function"
    },
    {
      "inputs": [],
      "name": "getMyAdv",
      "outputs": [
        {
          "components": [
            {
              "internalType": "string",
              "name": "title",
              "type": "string"
            },
            {
              "internalType": "string",
              "name": "comment",
              "type": "string"
            },
            {
              "internalType": "uint256",
              "name": "pot",
              "type": "uint256"
            },
            {
              "internalType": "uint256",
              "name": "count",
              "type": "uint256"
            },
            {
              "internalType": "uint256",
              "name": "reward",
              "type": "uint256"
            }
          ],
          "internalType": "struct Advertising.AdvInfo[]",
          "name": "res",
          "type": "tuple[]"
        }
      ],
      "stateMutability": "view",
      "type": "function"
    },
    {
      "inputs": [],
      "name": "getAllAdv",
      "outputs": [
        {
          "components": [
            {
              "internalType": "string",
              "name": "title",
              "type": "string"
            },
            {
              "internalType": "string",
              "name": "comment",
              "type": "string"
            },
            {
              "internalType": "uint256",
              "name": "pot",
              "type": "uint256"
            },
            {
              "internalType": "uint256",
              "name": "count",
              "type": "uint256"
            },
            {
              "internalType": "uint256",
              "name": "reward",
              "type": "uint256"
            }
          ],
          "internalType": "struct Advertising.AdvInfo[]",
          "name": "",
          "type": "tuple[]"
        }
      ],
      "stateMutability": "view",
      "type": "function"
    },
    {
      "inputs": [],
      "name": "getAllperson",
      "outputs": [
        {
          "internalType": "uint256",
          "name": "",
          "type": "uint256"
        }
      ],
      "stateMutability": "view",
      "type": "function"
    },
    {
      "inputs": [
        {
          "internalType": "uint256",
          "name": "idx",
          "type": "uint256"
        }
      ],
      "name": "callReward",
      "outputs": [
        {
          "internalType": "string",
          "name": "",
          "type": "string"
        }
      ],
      "stateMutability": "nonpayable",
      "type": "function"
    }
  ],
  "bytecode": "0x608060405234801561001057600080fd5b50336000806101000a81548173ffffffffffffffffffffffffffffffffffffffff021916908373ffffffffffffffffffffffffffffffffffffffff160217905550611617806100606000396000f3fe60806040526004361061004a5760003560e01c806318b080661461004f57806329c7e1231461007a5780635a159ccb146100b7578063c45ea004146100e2578063ce44fefc1461010d575b600080fd5b34801561005b57600080fd5b5061006461013d565b6040516100719190610ba1565b60405180910390f35b34801561008657600080fd5b506100a1600480360381019061009c9190610bfc565b610147565b6040516100ae9190610cc2565b60405180910390f35b3480156100c357600080fd5b506100cc61049b565b6040516100d99190610e7c565b60405180910390f35b3480156100ee57600080fd5b506100f761067f565b6040516101049190610e7c565b60405180910390f35b61012760048036038101906101229190610fd3565b610820565b604051610134919061108d565b60405180910390f35b6000600254905090565b606060006003838154811061015f5761015e6110a8565b5b90600052602060002090600502016040518060a001604052908160008201805461018890611106565b80601f01602080910402602001604051908101604052809291908181526020018280546101b490611106565b80156102015780601f106101d657610100808354040283529160200191610201565b820191906000526020600020905b8154815290600101906020018083116101e457829003601f168201915b5050505050815260200160018201805461021a90611106565b80601f016020809104026020016040519081016040528092919081815260200182805461024690611106565b80156102935780601f1061026857610100808354040283529160200191610293565b820191906000526020600020905b81548152906001019060200180831161027657829003601f168201915b505050505081526020016002820154815260200160038201548152602001600482015481525050905060008160600151905060008260800151905060008360400151905060003390506001841161031f576040517f08c379a000000000000000000000000000000000000000000000000000000000815260040161031690611184565b60405180910390fd5b60008173ffffffffffffffffffffffffffffffffffffffff1684604051610345906111d5565b60006040518083038185875af1925050503d8060008114610382576040519150601f19603f3d011682016040523d82523d6000602084013e610387565b606091505b50509050806103cb576040517f08c379a00000000000000000000000000000000000000000000000000000000081526004016103c290611236565b60405180910390fd5b83836103d79190611285565b600389815481106103eb576103ea6110a8565b5b9060005260206000209060050201600201819055507f8782e5c30cac0b6312030114d26cce1f5effb11099923f18699d1e6e0af474fa60038981548110610435576104346110a8565b5b9060005260206000209060050201604051610450919061141d565b60405180910390a16040518060400160405280601081526020017f52657761726420436f6d706c65746564000000000000000000000000000000008152509650505050505050919050565b60606000600460003373ffffffffffffffffffffffffffffffffffffffff1673ffffffffffffffffffffffffffffffffffffffff168152602001908152602001600020805480602002602001604051908101604052809291908181526020016000905b8282101561067257838290600052602060002090600502016040518060a001604052908160008201805461053190611106565b80601f016020809104026020016040519081016040528092919081815260200182805461055d90611106565b80156105aa5780601f1061057f576101008083540402835291602001916105aa565b820191906000526020600020905b81548152906001019060200180831161058d57829003601f168201915b505050505081526020016001820180546105c390611106565b80601f01602080910402602001604051908101604052809291908181526020018280546105ef90611106565b801561063c5780601f106106115761010080835404028352916020019161063c565b820191906000526020600020905b81548152906001019060200180831161061f57829003601f168201915b505050505081526020016002820154815260200160038201548152602001600482015481525050815260200190600101906104fe565b5050505090508091505090565b60606003805480602002602001604051908101604052809291908181526020016000905b8282101561081757838290600052602060002090600502016040518060a00160405290816000820180546106d690611106565b80601f016020809104026020016040519081016040528092919081815260200182805461070290611106565b801561074f5780601f106107245761010080835404028352916020019161074f565b820191906000526020600020905b81548152906001019060200180831161073257829003601f168201915b5050505050815260200160018201805461076890611106565b80601f016020809104026020016040519081016040528092919081815260200182805461079490611106565b80156107e15780601f106107b6576101008083540402835291602001916107e1565b820191906000526020600020905b8154815290600101906020018083116107c457829003601f168201915b505050505081526020016002820154815260200160038201548152602001600482015481525050815260200190600101906106a3565b50505050905090565b6000823411610864576040517f08c379a000000000000000000000000000000000000000000000000000000000815260040161085b9061148b565b60405180910390fd5b61086c610ab6565b8581600001819052508481602001819052508381604001818152505082816060018181525050828461089e91906114da565b8160800181815250506000600460003373ffffffffffffffffffffffffffffffffffffffff1673ffffffffffffffffffffffffffffffffffffffff16815260200190815260200160002080549050141561090b57600260008154809291906109059061150b565b91905055505b600460003373ffffffffffffffffffffffffffffffffffffffff1673ffffffffffffffffffffffffffffffffffffffff1681526020019081526020016000208190806001815401808255809150506001900390600052602060002090600502016000909190919091506000820151816000019080519060200190610990929190610ae5565b5060208201518160010190805190602001906109ad929190610ae5565b50604082015181600201556060820151816003015560808201518160040155505060038190806001815401808255809150506001900390600052602060002090600502016000909190919091506000820151816000019080519060200190610a16929190610ae5565b506020820151816001019080519060200190610a33929190610ae5565b50604082015181600201556060820151816003015560808201518160040155505060016000815480929190610a679061150b565b91905055507f9a6c4c9571938c63fb30748dc45cb487b57e717ccd9d2194ca1679b5e918c6e033878686604051610aa19493929190611595565b60405180910390a16001915050949350505050565b6040518060a0016040528060608152602001606081526020016000815260200160008152602001600081525090565b828054610af190611106565b90600052602060002090601f016020900481019282610b135760008555610b5a565b82601f10610b2c57805160ff1916838001178555610b5a565b82800160010185558215610b5a579182015b82811115610b59578251825591602001919060010190610b3e565b5b509050610b679190610b6b565b5090565b5b80821115610b84576000816000905550600101610b6c565b5090565b6000819050919050565b610b9b81610b88565b82525050565b6000602082019050610bb66000830184610b92565b92915050565b6000604051905090565b600080fd5b600080fd5b610bd981610b88565b8114610be457600080fd5b50565b600081359050610bf681610bd0565b92915050565b600060208284031215610c1257610c11610bc6565b5b6000610c2084828501610be7565b91505092915050565b600081519050919050565b600082825260208201905092915050565b60005b83811015610c63578082015181840152602081019050610c48565b83811115610c72576000848401525b50505050565b6000601f19601f8301169050919050565b6000610c9482610c29565b610c9e8185610c34565b9350610cae818560208601610c45565b610cb781610c78565b840191505092915050565b60006020820190508181036000830152610cdc8184610c89565b905092915050565b600081519050919050565b600082825260208201905092915050565b6000819050602082019050919050565b600082825260208201905092915050565b6000610d2c82610c29565b610d368185610d10565b9350610d46818560208601610c45565b610d4f81610c78565b840191505092915050565b610d6381610b88565b82525050565b600060a0830160008301518482036000860152610d868282610d21565b91505060208301518482036020860152610da08282610d21565b9150506040830151610db56040860182610d5a565b506060830151610dc86060860182610d5a565b506080830151610ddb6080860182610d5a565b508091505092915050565b6000610df28383610d69565b905092915050565b6000602082019050919050565b6000610e1282610ce4565b610e1c8185610cef565b935083602082028501610e2e85610d00565b8060005b85811015610e6a5784840389528151610e4b8582610de6565b9450610e5683610dfa565b925060208a01995050600181019050610e32565b50829750879550505050505092915050565b60006020820190508181036000830152610e968184610e07565b905092915050565b600080fd5b600080fd5b7f4e487b7100000000000000000000000000000000000000000000000000000000600052604160045260246000fd5b610ee082610c78565b810181811067ffffffffffffffff82111715610eff57610efe610ea8565b5b80604052505050565b6000610f12610bbc565b9050610f1e8282610ed7565b919050565b600067ffffffffffffffff821115610f3e57610f3d610ea8565b5b610f4782610c78565b9050602081019050919050565b82818337600083830152505050565b6000610f76610f7184610f23565b610f08565b905082815260208101848484011115610f9257610f91610ea3565b5b610f9d848285610f54565b509392505050565b600082601f830112610fba57610fb9610e9e565b5b8135610fca848260208601610f63565b91505092915050565b60008060008060808587031215610fed57610fec610bc6565b5b600085013567ffffffffffffffff81111561100b5761100a610bcb565b5b61101787828801610fa5565b945050602085013567ffffffffffffffff81111561103857611037610bcb565b5b61104487828801610fa5565b935050604061105587828801610be7565b925050606061106687828801610be7565b91505092959194509250565b60008115159050919050565b61108781611072565b82525050565b60006020820190506110a2600083018461107e565b92915050565b7f4e487b7100000000000000000000000000000000000000000000000000000000600052603260045260246000fd5b7f4e487b7100000000000000000000000000000000000000000000000000000000600052602260045260246000fd5b6000600282049050600182168061111e57607f821691505b60208210811415611132576111316110d7565b5b50919050565b7f45787069726564206164766572746973696e6700000000000000000000000000600082015250565b600061116e601383610c34565b915061117982611138565b602082019050919050565b6000602082019050818103600083015261119d81611161565b9050919050565b600081905092915050565b50565b60006111bf6000836111a4565b91506111ca826111af565b600082019050919050565b60006111e0826111b2565b9150819050919050565b7f4661696c20746f207472616e7366657220726577617264000000000000000000600082015250565b6000611220601783610c34565b915061122b826111ea565b602082019050919050565b6000602082019050818103600083015261124f81611213565b9050919050565b7f4e487b7100000000000000000000000000000000000000000000000000000000600052601160045260246000fd5b600061129082610b88565b915061129b83610b88565b9250828210156112ae576112ad611256565b5b828203905092915050565b60008190508160005260206000209050919050565b600081546112db81611106565b6112e58186610d10565b94506001821660008114611300576001811461131257611345565b60ff1983168652602086019350611345565b61131b856112b9565b60005b8381101561133d5781548189015260018201915060208101905061131e565b808801955050505b50505092915050565b60008160001c9050919050565b6000819050919050565b60006113786113738361134e565b61135b565b9050919050565b600060a083016000808401858303600087015261139c83826112ce565b9250506001840185830360208701526113b583826112ce565b925050600284015490506113c881611365565b6113d56040870182610d5a565b50600384015490506113e681611365565b6113f36060870182610d5a565b506004840154905061140481611365565b6114116080870182610d5a565b50819250505092915050565b60006020820190508181036000830152611437818461137f565b905092915050565b7f4e6f7420456e6f75676820455448000000000000000000000000000000000000600082015250565b6000611475600e83610c34565b91506114808261143f565b602082019050919050565b600060208201905081810360008301526114a481611468565b9050919050565b7f4e487b7100000000000000000000000000000000000000000000000000000000600052601260045260246000fd5b60006114e582610b88565b91506114f083610b88565b925082611500576114ff6114ab565b5b828204905092915050565b600061151682610b88565b91507fffffffffffffffffffffffffffffffffffffffffffffffffffffffffffffffff82141561154957611548611256565b5b600182019050919050565b600073ffffffffffffffffffffffffffffffffffffffff82169050919050565b600061157f82611554565b9050919050565b61158f81611574565b82525050565b60006080820190506115aa6000830187611586565b81810360208301526115bc8186610c89565b90506115cb6040830185610b92565b6115d86060830184610b92565b9594505050505056fea2646970667358221220f4548a7a874c2b822db798c79c0824b74aed09e6d36541fe6a4a5d2847f4fc4f64736f6c634300080a0033",
  "immutableReferences": {},
  "source": "// SPDX-License-Identifier: MIT\r\npragma solidity >=0.4.22;\r\n\r\n//   ver1.0  \r\ncontract Advertising {\r\n    address payable private owner; //   \r\n\r\n    constructor() {\r\n        owner = payable(msg.sender);\r\n    }\r\n\r\n    //  \r\n    struct AdvInfo {\r\n        string title; //  \r\n        string comment; // \r\n        uint256 pot; // \r\n        uint256 count; //   ..    1/N   ?\r\n        uint256 reward; // 1    \r\n    }\r\n\r\n    //  \r\n    uint256 total_adv; //     \r\n    uint256 total_person; //   \r\n    AdvInfo[] AllAdv;\r\n\r\n    mapping(address => AdvInfo[]) private _advs; // 1    \r\n    mapping(uint256 => AdvInfo) private _adv_dict; //  \r\n    \r\n    // \r\n    event AddAdv(address addr, string _title, uint256 _pot, uint256 _count); //      \r\n    event howmuch(uint256 val); //   \r\n    event test(AdvInfo info);\r\n\r\n    //  \r\n    function addAdv(string memory _title, string memory _comment, uint256 _pot, uint256 _count) public payable returns (bool res) {\r\n        require(msg.value > _pot, \"Not Enough ETH\"); //     \r\n\r\n        AdvInfo memory a;\r\n\r\n        a.title = _title;\r\n        a.comment = _comment;\r\n        a.pot = _pot;\r\n        a.count = _count;\r\n        a.reward = _pot / _count;\r\n\r\n        if (_advs[msg.sender].length == 0) //      \r\n        { \r\n            total_person++;\r\n        }\r\n\r\n        _advs[msg.sender].push(a);\r\n        AllAdv.push(a);\r\n        total_adv++;\r\n\r\n        emit AddAdv(msg.sender, _title, _pot, _count);\r\n\r\n        return true;\r\n    }\r\n\r\n    //      \r\n    function getMyAdv() public view returns (AdvInfo[] memory res){\r\n        AdvInfo[] memory a = _advs[msg.sender];\r\n        return a;\r\n    }\r\n\r\n    //    \r\n    function getAllAdv() public view returns (AdvInfo[] memory) {\r\n        return AllAdv;\r\n    }   \r\n\r\n    //    ?\r\n    function getAllperson() public view returns (uint256) {\r\n        return total_person;\r\n    }\r\n    \r\n    //     \r\n    function callReward(uint256 idx) public returns(string memory) {\r\n        AdvInfo memory a = AllAdv[idx];\r\n        uint256 _cnt = a.count;\r\n        uint256 _rwd = a.reward;\r\n        uint256 _pot = a.pot;\r\n        address payable addr = payable(msg.sender);\r\n\r\n        require(_cnt > 1, \"Expired advertising\");\r\n\r\n        (bool sent, ) = addr.call{value: _rwd}(\"\");\r\n\r\n        require(sent, \"Fail to transfer reward\");\r\n        AllAdv[idx].pot = _pot - _rwd;\r\n\r\n        emit test(AllAdv[idx]);\r\n\r\n        return \"Reward Completed\";\r\n    }\r\n\r\n    //      ?\r\n}",
  "sourcePath": "C:\\workspace\\HKNU\\blockChain\\blockchain-node\\blockchain-node-api\\contracts\\Advertising.sol",
  "compiler": {
    "name": "solc",
    "version": "0.8.10+commit.fc410830.Emscripten.clang"
  },
  "schemaVersion": "3.4.7",
  "updatedAt": "2022-06-07T07:13:43.774Z",
  "devdoc": {
    "kind": "dev",
    "methods": {},
    "version": 1
  },
  "userdoc": {
    "kind": "user",
    "methods": {},
    "version": 1
  }
}